:020000042010CA
:100000009711F05F9381012897020000938282018B
:100010007390523093021000638402007350107C7E
:100020009702000093824211739052301301000036
:1000300063140100138101CF732540F18142130342
:100040000040137101FF6385A2001A918502D5BF9C
:10005000970000009380C00763830000829073259F
:1000600040F181450146ED209300000063830000CC
:100070008290970200009382C20073905230032353
:100080000000F5BF000000008280A14673B3063077
:10009000914263C555001376350011CA230005004F
:1000A0000505FD15E347B0FE731003308280232061
:1000B00005001105F115E34EB0FC7310033082808A
:1000C000232003001103E34D73FE82800684970210
:1000D000F0DF938222F3638C02049702F0DF9382B5
:1000E00062F2F32740F1A14673B006300A8397030A
:1000F000F0DF938323318A9363037300D1376398CE
:1001000057021703F05F1303E3EF9713F05F938336
:10011000639A630373006D371703F05F130383EE75
:100120009703F05F938303EE63037300513FA28054
:1001300082800000F322203473231034F323303400
:10014000D5BF411122C6000801003244410182801E
:1001500006849711F05F9381E11293020000631B04
:10016000550C97B200009382E27F1703F05F1303F0
:1001700063E993830183638C6200635A730003A570
:10018000020091022320A3001103E34A73FE975259
:100190000000938222C71703F05F1303A3E69703BF
:1001A000F05F938323E6638C6200635A730003A5B8
:1001B000020091022320A3001103E34A73FE0F10F3
:1001C0000000975200009382E2C31703F05F13030D
:1001D00063E39703F05F9383E3E2638C6200635A07
:1001E000730003A5020091022320A3001103E34A38
:1001F00073FE0F100000138301839383818E635776
:100200007300232003001103E34D73FE1382018367
:1002100011C2029617B500001305252EEFB0E02994
:10022000EFB0C03017B500001305856EEFB0E028C1
:10023000EFB0606C3937FD5673B0463073B046345A
:10024000F3271030372704007D8F09C773B036308D
:1002500073B02630370704007D8F19C373B00618BA
:10026000416713078702F98F89CBF32700300967AD
:10027000D98F7390073073503000054597450000C3
:100280009385C57117460000130686713120EFB0C3
:100290000024A28082808280411106C2F32240F1B4
:1002A000130300006385620073005010F5BFEF4038
:0802B000D075924041018280EB
:0C02B800C4021020F00210201A031020D5
:1002C400011106CE22CC0010EF90C0362326A4FEE6
:1002D4008327C4FE99C7B7170080138507A7EF903B
:1002E400203E0100F240624405618280011106CE85
:1002F40022CC0010EF9000342326A4FE8325C4FEF4
:10030400B7170080138507A7EFA010460100F2403D
:10031400624405618280411106C622C40008F16767
:1003240093850720B7170080138587A3EFA0306259
:0A0334000100B24022444101828022
:1003400099999BBAAA9A8AAA88A8A99ABA99AA0836
:1003500011A8A9BBAAAA89A81990AABB89A9880A29
:10036000009098A99A8A9A008898809B9989A818E1
:10037000B8800198B99A8030CC010A80BB011190F5
:100380008D4433010988008A4C7733010AA888C953
:1003900059678290898AABAA414711820009AA89CC
:1003A00022131203210100101121228230021201B6
:1003B000000004A81923020088889099892013025C
:1003C000121080008118000931121011011812DD7D
:1003D00068262808889A54FF7B858A8081CC51FA48
:1003E0007CB5098811D84CF47CA38B1133B19FD60E
:1003F00079A0A9080011CC8001CBCC0C00300218E8
:100400000898CA8B101012880121030932011909BA
:1004100018892311110080098280100002888880C9
:1004200001898B10818808119280891008008082D0
:100430008881808190881090918908808880A88820
:100440004241422313324342001111124312011060
:100450001292102212029908121010111289B899E2
:1004600010188020128981BB88180800008018802D
:10047000819A99182280098001A98919141199116A
:100480001980A9101213081219028919320010904C
:1004900042358018218031111180EA0B88285223BF
:1004A000B9ECDE19B809899AFFFFBE0880DCFFFFAE
:1004B000FFDF8B1001C8FFFFAA8900311281B8BA93
:1004C0009198101188010000089001080800088820
:1004D000188808880002880001088888110198811E
:1004E0008880880009890080001010808189009030
:1004F0000888201211000088A99923881202009907
:1005000061771588080808003690EB9C0089091867
:10051000FFFFFFAC888890B8FAFFCF9998011800C8
:100520004344450100080800305456019800080073
:10053000900882100000018988BB09000089989901
:100540001820113110818808AA9A082102B9FCCF1D
:10055000DCFBAC181180FAFFFFFFCF28811990EA6D
:10056000FFBCBD0A811088F8EB8CB009A0092033CC
:100570006711B928C98A887222810A288888802947
:1005800089909920482532899A00011143141081DD
:100590008001011001140008220200020200210162
:1005A00088818811228899881108211043838A88BC
:1005B0001130441352541210232221122265443167
:1005C0002324231201103010091100210100818021
:1005D00018A89A1280811091809099208080080834
:1005E0000001810918010800899080001200800034
:1005F0008808801981AC9A18890801002189B8BA45
:100600002382100133353221461200086354777774
:100610001199888921347646DE8BA98AC8BDEDFE02
:100620009B08B88CD9FFFFEF000AA999B8BCAB981A
:1006300090998A18018909101081800100108101A8
:100640000288080101909A42059A002000D8EF72B2
:10065000B4A9998821F8FF72C40A881842A5FF70CE
:10066000C39A08115355FF7BB11001802353F47DC9
:10067000818089118920843E9088A818A9891189D0
:100680009000001888990081800021008180081066
:10069000918009891811910080809000899009103B
:1006A000001888008889818100080210909A0088CB
:1006B00008888010018808089000101881810801BE
:1006C0001291989AA9989800332500989A98002238
:1006D00045450280889909311343259808882943A4
:1006E00054031290122154571800108834454521A4
:1006F000CFAAA999200192CDCBCCBDAA008A12B075
:1007000099B9BAA99A8880981891AB9A8A80A98ACF
:10071000888898A989888998012080009AAAA9893F
:1007200002200009A8BC090800990209988B1980C9
:10073000A89A8898989A8008AC89A8A8A98A8A9AC1
:1007400021229188809998085233100918100010BE
:100750004290888821011232029BA98A3213182004
:10076000C2CDFEAD31230251FFFFFF9D23888933A7
:10077000FFFFFF8C01908022C92B828990281011E5
:100780001952771491908990382272360899090885
:10079000100211020888898822910010889800B000
:1007A00008080888001098998A890980801091802B
:1007B00009988A001880808989890A0800001180B8
:1007C00009080890888980890110008108001008B4
:1007D0002400080800002242760388982821336408
:1007E0004836810000210198EE2A2382006426B950
:1007F000B3DD9B80A8BB313422CAAE88C9FFCE19B5
:100800008191BA9BBADEFC1B90011890B918089B25
:10081000A99B1210990082A8088911108812030957
:10082000090928880818120881081808080080108B
:10083000982389899009109388A919881889808A32
:10084000210000120080090818988801129899095F
:1008500010A8890080A8CB1028919B210099CC2852
:100860008808892001A8AB238B09002381BBCF27EF
:100870008C22331411FABF77801032332081FF7736
:10088000828800211831FB7B830089010100A82C9C
:1008900083218108011A010A0001210001181001B9
:1008A0000A80100008080900890988001021200822
:1008B000008918218898908811088020020001087A
:1008C000AA998800100890A9BAAA890001329298C2
:1008D000A9AB9A0031765615158899092176766765
:1008E0004602988888A0CB498B111108C9FDFFFFEB
:1008F0009A311199CB9D20C8980A8B888842988993
:10090000808898893180811080980999310241123C
:100910009918A08911110081011000001110011017
:1009200020810808800A88188889988090AA808980
:100930000809088081998188000180110088A90830
:10094000000018221011120888080012810100808E
:10095000808118010110019088080111089009A8F0
:100960000900801208100900988209108010991857
:1009700090881910908A991018100800980A1A0285
:100980000A12000888882A839C0888099111093670
:10099000EA1112108200BA72F509111220919973AE
:1009A000D5AE000812B89B7484ED9C8902CB0A5224
:1009B00083FCAE181199297504A88A00229829553C
:1009C000AA8A988818128098DC8B10801043A1CCDA
:1009D000BB0911012134E8DFBB2311012813E8FF13
:1009E0001D3101122002C0FF5E2422121021B2FF2D
:1009F0005A032910890810FE38900A88990843A3E1
:100A00000AA89989089811902880A9800089BAA815
:100A10001101B909200009800882028020122101F9
:100A2000802301018011010800200091998098081D
:100A30000111108088808882080091980818008130
:100A400009880000001122009A8900801110118885
:100A50000A11101011002198B921201201098800F3
:100A600090188022911900882201181190908A9A7A
:100A7000036445028099982AF2BE4002212301595D
:100A800017FFBF800808281A76F3FF9B809089DA49
:100A90007987EF9C189289C92A13C99A008100802E
:100AA0001100A1988811801901908100088880099F
:100AB000188000008818080880888800189018009E
:100AC000A9CBAAAA9B98890988ADABA9AA08091144
:100AD00091AABBBA0020811183BCAAAB18213312A2
:100AE000A80B089B0030808B8A0101A98801B8DA25
:100AF000442423A8980810A8750322B98918A0BB1C
:100B000013B9ACBB8989B99B15BAABA98809811106
:100B100033348889998B01112382188188AA880926
:100B20001112209018898110204120911900221261
:100B30000232019889013426110100B89A19213531
:100B4000A89AA9999A8990898998899A0888AA89DE
:100B5000118988A819918988228109981122A00AEF
:100B60003302008031140200551510016333333213
:100B70006324121432123200984834921880008094
:100B8000A819129109880A1002081998AA889808C9
:100B9000128198BA89808180808899AA9B080180F7
:100BA0008B99A0B9AA0A89B888990099BA999A89A3
:100BB00088A980BAAABA99A89A88A8BA8B89A8895C
:100BC000080089880809088880180001800A8808B8
:100BD00009999818911889880008890080980088D8
:100BE0009800900898A8908808890818908800981C
:100BF000091181009988800898AA89009A8A889AA0
:100C0000CABC0D119898808174777704880101001F
:100C10007777168000181131BBFDBC9820801281B7
:100C2000ECFFDF89280899803181B809080188081C
:100C3000083313188000818001101301110808087F
:100C400099088900899898AB9088089880980A88B4
:100C5000888880801010988800880089288088897A
:100C60008888200921288088188992081001100896
:100C70009089B99B00222800FFFFFE9CCCBEDEFFBE
:100C8000BCAABAAAFDFFFFEE31352300FBCFBC8022
:100C90004454543498222322352242234357644635
:100CA0008191312251563383218220101143020950
:100CB0009008100008808930110001088000880128
:100CC00080810098801021114132120810213422B5
:100CD00011121281112131011112230281101113FD
:100CE00001011181889801002110201290A9081992
:100CF0008419088808104154228801898940434496
:100D000043561189980A23231103B99A88A8AA88FF
:100D1000FEAECB9A8899DACCBACB1998A89ACCAC0B
:100D20000A001800A89BBABB9B0A988899AABB9A8C
:100D3000AC898009A999AB98AB89088888AABA8937
:100D40001111122102881120888018131102818943
:100D500080918A1000811881808899000019120002
:100D60009099890080101118110181188288000063
:100D700020828000809B819A09829928A1BE0898D0
:100D80008188893191FF2B121400801091FDAF52A0
:100D90007624181010A1FE0B2F1022290011C9FF74
:100DA000FF1B0200011222FDFF8F00000080419412
:100DB000FAAE080110011814A2AA19022200004379
:100DC00089980088188080198A099908108090886D
:100DD000898198188098880800888808129800806F
:100DE000088800088100A0100008081110180810D9
:100DF00098088011898809809010000988801882DD
:100E00000888891100A910A21AA09889889A30B37D
:100E10003D84A999A99D40F49F248299B92B52F44D
:100E2000CF5321109A6054F3FF2C4323987134D48C
:100E3000FFAF2200084347C3FFAF001011324581C6
:100E40000012121232218180A9183231222291809F
:100E5000000A1132222138039A99101280211112AE
:100E600099911013989A102399100828A9AB184447
:100E7000829C89089B8873C002890120C91854FF8D
:100E800014090119F96A25CC2208900AE98F45C88E
:100E90008C88981AC8EF30B1A8B98A0980FF9B8A5C
:100EA0000290A81991C9BB0A888888281080990ADD
:100EB00099180818110900108A800022218889B821
:100EC0008808101008008188980010011080080818
:100ED00080181001109880028808011080A0988066
:100EE0000882818011811181AA180101100188886E
:100EF00010220198089888A07727B09A80091232AA
:100F000085FEFF8B01112161FFFF9F10080108A8DA
:100F1000DE195522080180C962571380088098089D
:100F2000989B8A89018898088889AA8990088818D6
:100F3000100199080080888A9990010008818990A1
:100F40004492B89AA9AA20641301A8BAAB204445D8
:100F5000BA08A8BA0A115384828AAAAA29764680B6
:100F6000998CBBCC387757BABA0BBAAB207787FFCE
:100F7000892801A9586693BD111032820823829DE9
:100F800008182282883013AC00002000809013994A
:100F90001080188909911000008081900890809835
:100FA000888821901888999A8908019A982898A881
:100FB0008891889AAB08988809899A9AAA999890F2
:100FC000821821200100103390980101809A392362
:100FD000A8998921A8AC4024AB888821E88E738326
:100FE0009A100020FC0F75C68B090018F98F74F554
:100FF0001B908888CACE72F58A00118081DA7A94B3
:101000008800001121908A058888893030129882E2
:10101000080188101210018889008A1101188000C7
:101020001888281180890098809880128808088084
:101030008080101182991918080088200210080079
:10104000080180988AA989900013008889818810F6
:101050009918028818200880981012A11010081002
:101060009901218111891802882210A1008100892B
:10107000818998998201889853D9ED9C310801A8FB
:101080006B16F9BD8088A9A00F77028B80008900BC
:10109000FF7757A010838900DD4134809A010080DA
:1010A00008211380BA2889A99A383398CA0AA099C6
:1010B0008A2080A8BB898091180088A8BA991180DD
:1010C000A90989101000A0A890090008808802AA28
:1010D00088818101011081A9A8880200181388085D
:1010E00008118110009032029921A1102200108372
:1010F000901090000018828A200280981808980C9E
:10110000210180999989A02A56A8A9089881AC8CB8
:1011100057828B881881CBEF671021821193DAFFF9
:10112000368261143182DBCF222423122183DC9F9B
:10113000113322802881EDAF010901880090BBBDE9
:1011400020100012211200808C0012020180AAECF3
:10115000FF9C88210198C8ECB0EE0C1000180381A8
:1011600057E0BF00810011644026EB18008A90AE62
:10117000AB318408A08D42A183988800B8CD2A762F
:101180002388B91881AABC0A290218181112A0DCF8
:101190008B191812130280C9D99C102013980021B2
:1011A0008099091211A989201101883283A8BB9A5C
:1011B00000121012220801A19888120220112001A9
:1011C0000818202111800000A80808232298A8AA46
:1011D000DDAC991181A8EDEFFFEFAE08809ACBDF6F
:1011E000FFFFBF0818AACBFFFFFFAC0A119100FC5C
:1011F000C90AA80944437325441320303514082331
:10120000112308401309A820100888118889910A21
:101210000890190101AA889A9080180002988820E5
:1012200002009018128A01180000982032112081C3
:10123000090118203234088121212132424333220E
:101240008888811800081988888988018188998888
:10125000888A8A1088AA881080000900A88081984E
:1012600018018B089A899909108080190080100153
:10127000B90A0089009891980089B80B89008809FB
:101280001091DB0B08880988D9DD08208018808040
:10129000BC206435980800007777473281120950E6
:1012A00073773581010101A0DCACAA09811988910D
:1012B000D9FFAB0901808A8098AA09101111008119
:1012C000112201000111B88B402203010044F9EF03
:1012D000551211003154F1FF67908A800865E7EFDD
:1012E00057AB9A08A82036DF279A8889CA1D72DF73
:1012F000850A000991BC39D18108018A08888A9839
:1013000080008091100180188180981800000019D9
:101310000818800808801818080808008008900835
:1013200000008080988881008899801091989008AA
:1013300088080818800989A0880888118008088012
:101340008080102202111102088909101101300059
:1013500021A889128180012890909C280001801981
:101360000208A918110219192283A0102112AA2C0F
:10137000258000892101FF0F8029811808BAFF1CF0
:10138000A119102088CAFF439280881089ABEF60B2
:10139000E88929008099FC59A040010100B9B929C8
:1013A0002882881010B9281988818010108818BAEE
:1013B000808A000110010280180800200011828834
:1013C000AC99A98A8A9AA9ABBCBC9988A8AABBCDBA
:1013D000BCBBBB8A0800A8BA3901A8888A80A88942
:1013E0002101A09A189A908812889A9898991821A1
:1013F00082098998892212101000000190118281BF
:101400000088280288A991098812248128B8BA99ED
:10141000111288893182A909FEBBDB993023B1DC26
:10142000FFEFAC89502402CA038A010021453345ED
:10143000775737828922667676663598882844669B
:10144000819808110111243424A9080288206524F8
:1014500033000010A0BB894412881801F9FFFF9FD8
:101460002C012001CDFFFFFF2A012281B90898CC71
:10147000891108013133659221180001541322119A
:10148000A1AB09808209990A889A9888B029201905
:1014900010088918B8891A922100808098998811BB
:1014A00008121281A81B129008808801A0CBAA8084
:1014B0009A8801000100AA90981000110080A8AA43
:1014C00088998889A0AA99AA9B98AA9AA9AB2A82E6
:1014D000AB9AAB89BA990990DC9BAB9ABA80A90008
:1014E000BD9B9A99C98AA0989AA88888B9CBE9BC6B
:1014F00099811010C8EEFBCF08432212BABDBA0B77
:10150000115346129A8A01390020430442143308C9
:10151000848810806146440024990899413613203C
:10152000119AB98A108290900008998928010803BD
:101530000910088988128901811288988800200082
:101540008980001808108090988888002080891071
:1015500088918900808918811A13908092990100DE
:101560005B04C98000AA910170A5CC8A0108A9A8D2
:101570007D87DC09220108D26F57A80A33008AC18F
:101580008F478A1911020200AD1309008298910851
:101590008B828880108B18AA1008988101A809896D
:1015A0001881881810118010901090180090080968
:1015B000920908111088081A80108801808880001C
:1015C000080010121280A8988109881000BBAB286F
:1015D0008180081118A8EC8C19080911535637900E
:1015E00011080801316377379B898818EAFFFFDE0D
:1015F00081000818FDFFFF9C10881018AB29643487
:10160000080188000924130100989800900008A997
:10161000800081000808021008988088008A8808E5
:10162000980810100289888118880808028A988012
:10163000818090201100080A800000110010101114
:101640009B099099A89889BB19220380889989A938
:10165000755736919A880808776734918909185127
:10166000DB9E890808900081FFFFFF9A088888D9CF
:101670003309AC990A08002052774580808180891F
:10168000AA8A10130000880889B89A192080088057
:10169000101188882111888881880800898008981D
:1016A0008818080080998A81001800089088080925
:1016B00000008088990801880880819998091000A5
:1016C000113213213232101188102232011088B8E1
:1016D0001808122101908A8018302331A11891191D
:1016E0000001801310048088890019210809011164
:1016F0002B880021201012922F02090208311214A7
:10170000BF231000B03B1813EA280088C89C196555
:10171000B3AB080AA09AB9713699BB8A819ACBAF4C
:101720006113C90A888A90FF1B43A28A0208A0FDA0
:10173000392233080180A9FD19132220231099DBD7
:1017400098AA880088082081A099A9008900428071
:10175000980208889918249899080180880920100F
:1017600099088808988980B8810912009BA8A9184F
:1017700018B92300AC105236BC8B11812843452484
:101780009F111189484305990F23809A5854149B3F
:101790008B8199AA204316BC0880B99A190036900B
:1017A0009898DB9C8A1145A8AA88980AA920539387
:1017B000DA8B898988195225AA9A088809803012FB
:1017C000321488A999A99818484702AAABA988BADF
:1017D0001B7524B9AAAC90B99F6635A0998A12A945
:1017E000FF6421919A880800FF75039408821849C4
:1017F000FD773404081008388B374214988A08980B
:1018000029241082BAA909AA30A08980A89890B882
:10181000109009002081809880000199181180089B
:101820001808989908801818808098AA09800910CB
:101830001008A8A99A088800889AAB99B988819855
:1018400098889888089080088099890908809899D4
:101850000801880898A08901118A00998898881839
:101860008999880891888080000089A909008809E1
:1018700088998809AA889909A911A098A9AA0A880B
:101880009889909A80AAA908918999081010080946
:101890009A180A00221182D9CE082801224424C8AD
:1018A0004723440212236577777654838018406675
:1018B0002112028100BA9B00EFDD8989999AEDFE21
:1018C00098002122211310019B0801101311089880
:1018D000989A90318299108990099011819B9880F3
:1018E000998A090022118191A09811203232138126
:1018F000958A881122911A419808201001D99C429A
:101900008900801092ED09811821000991FF308330
:101910002A11000881FF7D248980811081FE5F14D7
:101920008818910880FABF200199191081D8DF0A20
:101930002212021001A8DC19101822321280AB8882
:101940009A09100118109989EDBB1980028999B97B
:10195000FFCF8A1188AA89E9293412129009A0BC04
:10196000777757239089A83A317455348008181234
:10197000FAFFAB100109111033C9EC8C000008000C
:1019800028358189128219899909210811100100CD
:1019900088891912801012811111891100008108A3
:1019A00088099920009808080000111000A8A9884B
:1019B00010013002009A8890988800128189880866
:1019C000AA99AAB99BA99A899089A9BBB9AB8A9807
:1019D00091AA809999898000808A11988A9998089B
:1019E000012002A09988999990302382A89A998918
:1019F000FA61128399989919FC7A243498228808FC
:101A0000F87E673529001829F17C77360A11888914
:101A1000B9395524992080999810422399881898AB
:101A2000891031839A808819890832919A11A8AA5D
:101A3000000011A0AB988A80100890AAA999B90952
:101A40001101110081010811321011181888883114
:101A500012820008192111110282801900108208D7
:101A600008888889880890A94232919B010813014F
:101A70007790DB8C11223154F1FFEF9B8008993174
:101A8000FFFFBFAA00A990F8FF8B3283999908CA7B
:101A90004244228088B1890A91088900088091090E
:101AA0000181289080880880811811110099089878
:101AB0008898810080900018090881101108889A80
:101AC00018198800010800000B000000908990A8F8
:101AD0009B08201090A91882AB10211208A99A0027
:101AE0009A120101532481880B1210017377770534
:101AF0002B80190399FCDFDC12808101FBFFFFBF03
:101B000015012101ECFF892094000810CB39243203
:101B100001089988A9010302998099809A190210F5
:101B2000190008018909200000A888081888811078
:101B3000B09A9910809008211080180110000012AE
:101B40009A1020101110999ABE9B00101180CADDC6
:101B5000CBBC0910989999CAADB80A0888AABACC22
:101B600014809910204356675581981962547677EE
:101B70000B0008000088FAFFA908881880DBAC9CDD
:101B800001888008001911001980A810810898990F
:101B900098108119808000129110901012828899FB
:101BA000818190103300018181898081122200009F
:101BB00080888910121280A09010882200001800DE
:101BC00041341288080918123243130088A91022E0
:101BD00031430400A8DD201331313311BABD300286
:101BE00011125122EBFF2A3204213202D9FEAF76C4
:101BF00057112102A9CBFF6D440109091090FBBFC9
:101C00008008999A2130A1FE09088089181100FBEB
:101C100089A90088008100FA98A99800A98889B844
:101C200088980900989A9B9A888108888889899A57
:101C30008008010899A9AAAB898980088888A8A981
:101C40009098A889890988020199A98808103433D5
:101C500010829A89082111828A80999808131108A4
:101C60009A098B88008000908A90988909090182DE
:101C700011B989989188811901A81900909B981829
:101C80003043819010AB9908322321032112013097
:101C900003A9218322431231939900014334542232
:101CA0002310829831473302880089A8885493A86A
:101CB000EAEEAEA80981A8AAFFEFAAAA8988BBED1F
:101CC0008088120001012001A3AA28100098084270
:101CD00094EE89108199882016FF9B108091894984
:101CE00087FF8B212100981D17FF0C212188102BC5
:101CF00047FC8C002411009974C01800119180F8E1
:101D000041A12122888009F23A982A11890810B845
:101D100089AA181198819099018A01018801810985
:101D200088A99B0022900081180080192301108946
:101D30008198091112818888088908011110818011
:101D400089808888988990B89B880980880889BA92
:101D5000A9108100180088089A20908910982208FC
:101D60008801A999110902020982A88B20201388F1
:101D70008880B80A2123029AA89812A84342F18FBA
:101D8000929818005345F82F84800A802263F69FAA
:101D900005AA9B80216227CF00A08A88803043A2B9
:101DA00080A109088810208098989989198808804E
:101DB0008821999989808908981109999980889032
:101DC0008AA8088A89009989BC9A99A8890988B83B
:101DD000DB9988888A2A00819819899909290899A4
:101DE0009828329888118898800811981181801855
:101DF00000988899318088219F330300320190DA5E
:101E0000FF0D13982121A989F0FFCEAC1111A9383B
:101E100005FDFFAD809B9A394492EDAC009BAA2151
:101E20005113828A31212143121222005356571432
:101E3000121202883056563300118090881101002A
:101E40004423028009191333341282880028004089
:101E5000A10A088099119818A9A990009889B899A1
:101E60009A9A99889A99808ABBAA0881991000C980
:101E7000183334028A0200A865475414091112333A
:101E800015234425202122213111312530809998B4
:101E9000101221339A998AC088898900DBBB099284
:101EA00080CABCA8D9CF9A09EAEEAC8AA98BBACD70
:101EB0009ABBAA88A81992FD08009B88992100B9AD
:101EC00098009900100120019B108110100033A28E
:101ED0009A228200112110109A2211100111008102
:101EE00099819988011011009A03028010222063C1
:101EF000FF8B218A23324366FFFFCEAC28011142BB
:101F0000B9FCCE9B09109820A02109A098110100CE
:101F10009B0A18088988029A9A083000889A88884B
:101F200012190810908898898011A98999AA9A8015
:101F30008810088989A90A18288899809098998911
:101F4000202121320200BAAC1102203101B8FCBFBD
:101F50001200182302E9FF8C82C88A12A1FEBF2159
:101F6000A9A89A10D8FF0B120C11A920FBEF1200A0
:101F70002A889010FB0F21920A890921FB2A3291AD
:101F80008A889931A91843A2099088201089418232
:101F9000121B010022911222138A090811088300E2
:101FA00010809A211300B1881001993031110889ED
:101FB0008818123132132281102111224322540237
:101FC000AA9A88AA89BABABA980998989899ABB97E
:101FD000B98009991091898A88AA98890881890A03
:101FE000889099998000909AB18A9BA18032A80A22
:101FF0000A998990992392FFDF889888084055E5CF
:10200000C9A9A9880210427786A900A811103174C5
:1020100034120180308289180902000222058009E9
:102020001020220101121088883012808A821180CB
:10203000801012008A8180002221108A9A8020203C
:10204000880811118088888988A9898888A0A98A28
:102050000099008080A898991800880888890098BD
:10206000099889809910988A8C8801881921839908
:10207000A80001883903959F82981810193416BF5B
:1020800000808980092276FF8B119909880875F8EC
:10209000BF09B98A902873C7BA1A929A13243212C8
:1020A00021AA0909421412000882A0883202800085
:1020B0000105A989108808008121900810110118D4
:1020C00042130211000188086324220180B9802292
:1020D00042231310919B88280108092091000911BF
:1020E00021088808A0898811818A0080EABCBA305A
:1020F0002488B888EBEDBD411880B010CCAA899136
:102100000CA80821B90213C289012243093133A85E
:1021100010232433111A322166343342000A20631B
:102120001221423490A9881889812312980A1089B3
:10213000B88A111100891808999908110080189916
:10214000BDAAAA9AA9ABBCDA8A90A9A99AA899A90A
:102150008088809BAA998A01888890A999A99990DA
:10216000888A00B9B99C8008AAAB0A9889AA909974
:10217000FECEBAB9329281BA90ABA9B96437901841
:102180007625180864451342541422832121122114
:102190002181298110080010210009A10888103030
:1021A0000200A8980880001021110A980900212334
:1021B0003112809988082222018008AAAA103010C2
:1021C0002121181110110128452489880118104077
:1021D000929C8B1001202034FFFFDF090008AAFD2C
:1021E000FFAFAA09A998BAFE77472218A888085114
:1021F000776746138A102143CDAB18132189809944
:1022000000B9BA8800820081101188098080808816
:102210000998208000080888800110188088080824
:1022200080800011818980800898218090888900B1
:10223000908A101181A899089811192110909AAAD2
:102240008A00111222011198DD8A0111020020B1C9
:10225000CB990021018A40A1CD99201298AA280388
:10226000BD898A188988A934AB891108A88ABA223D
:10227000182224228081908911820211088188000D
:10228000B8ABAC0002880880A99A9A10330202A069
:1022900054343120214551563412110000657654D2
:1022A000AA8B9B08B89B9888AB89AA09B0FEFFCE81
:1022B000989A081080BA9A9B8800101202989998F0
:1022C00088A8999A998018005683A8A98810215443
:1022D0007535029988101142773721A90890093184
:1022E0006A573392889B18AADF326604AABB0BEBAD
:1022F000CC085515B9CC9C9009892105A9ABA89AA1
:10230000188008829AA098980092A9990A9881A0AA
:102310008AB08889298291908890AA991080108328
:10232000089188A90891890098A880A90998800037
:10233000088098AAAA9A0218988A9889A98A8888EF
:10234000A21A2301909AC029506BA1200981938C75
:1023500001230A32080081029A4A118901C1B19F02
:10236000909C890029938802CC9B0BAB1993419ACE
:102370001A090982B9A08D2BA04421288188FB036A
:102380001990800319159B2081A014009AA001B810
:1023900049121AB12021CC8802F2A1899E39C19834
:1023A000A228B03883B888A28BA03908DA010819AE
:1023B0000D9001A50800ABC1E9C4881BD021B8115C
:1023C000A13F9A891119B0082991AB8F9B8238AA35
:1023D0009421000309121211A830031CB181200CB2
:1023E0004C81931528421C8B12A220B195C912046E
:1023F000B01BA389D9B39003980012C80C1D12B862
:102400008202880031A933C1B8B81820113C20A13C
:10241000BDE999AAA91E980892C19D0B03959A85BA
:1024200048134A00391142910B109AAD13239103BE
:10243000A11B0112BD933CAAC103932824D018000C
:102440003931AA9A2088B820100021B989C221B94F
:10245000F823A089A2CC023B969101802F1FB8C817
:102460001A8492A0A8193CD80311A614B128A888F0
:10247000E119999120C9A892318A90B3A08B1F923B
:10248000A1EB1908208B0A8592A8B23A0B2F3820AD
:1024900000BAA9A05989802131AA1CB0A81A9A941F
:1024A000028AB0982A2912019002812D8080128020
:1024B000CA11982810B39B032192CB0301E18FA985
:1024C00019289A981B000A28219693A8D2A9410995
:1024D0002C0892382010A12888480B018D88890883
:1024E000A01D3F389389928999CAB91E9A8910888C
:1024F0008D90008A000019008882580A9128812056
:10250000010013928A94821283200BC24025099BFA
:10251000AA041212439010103308B2121092BBA0FA
:10252000083019819098B482908829B08100B2CC8B
:102530001907C2290788012818A8885B8289B298E0
:10254000B842B90891819A198B911F9820C1C89DF2
:10255000318C320B2968818AC243C00B3983001148
:1025600092F02A083B890241A89832C08909398033
:1025700040A18800B049ACBA020A0911C1452093B4
:1025800048881AB118900988C3F0901D03901AA8C2
:102590008B9298F91192012214B2189219302CA33F
:1025A00030B0108BC881A822024988B901A9A121A5
:1025B00070909000017C012F08998B830B23B18CC4
:1025C0009049ABB928A84880A920000228A02F80F4
:1025D0008C2102A393922929A2C1B103909A9A1245
:1025E00000A0940B00982902918A30B32C3908126C
:1025F0005AF8CA90804D981F83992F040B169201A8
:102600001329CD82891118001DA2090AB393233121
:102610002140888AC813B08091199611B9A20B89FC
:1026200089900A0828DA2181BA0C4898201D1C914B
:102630008A0232A0A48128C318A93003891C9813E8
:102640007882809600341C0B9082821197DA93A1D5
:10265000A20B818C9001C884801A82CB2B0A31088E
:102660008FA00A00818895992A2B82B88A1E9AFC2D
:10267000800350081AC0083018880089221881A2E7
:1026800051A9A1803885F20D8A29088116C828DC55
:102690008821020183008B890A0AB8B50189C18BA0
:1026A0008931D42AA02B19A990C41022A984B2A8D8
:1026B000088282A89011F1198A08801001231B0852
:1026C00088A905B000BB8112C319C82149098FB977
:1026D00088A11A24130B252008B91B128089A1C1D7
:1026E000C801291AB8AA002800313BA13B288C2236
:1026F00049D0CC19298A388B38828E318893288228
:10270000901A888AF95C82CC882388000B81B018E3
:10271000389198880980008CAB85181D0289603338
:10272000AB000120810022B182120811092028216A
:10273000893990909AB39BAA9F4A221B9210092034
:10274000A82CA88E881830211B18F8801C218333F0
:102750009180AC28AC8084AC9230A913A0012002F7
:102760001A201E3920812A298E124A91129129128B
:102770009008228DE9B2A190080010C1189F202175
:102780002B8D839118162921188398C8958282036E
:1027900001393202A8100191B0221281918A29993F
:1027A000822128801A9800181C8BAC1A08219B598A
:1027B00090288A03D8132111013C800A22981849D5
:1027C000A2198E0034A810202D3D998C9A8A2931A7
:1027D000900A0889A8A888F800220211838E9830F0
:1027E0002EC0A300B984295F9409300113B0B953F6
:1027F0002A10C18831C00A194C9A18A8190A980BD6
:10280000981451AB9BB09118184CB1203988AA8903
:102810008983881C80811909210D088269B2A889E1
:10282000291C1A1C8818138999D11FAC41801E03DA
:102830009911A01CC891203AA990A83F128881AA9A
:10284000800814A00399019987382A054809A088AF
:1028500080A11A107D9E2882C183B99831AB0118DE
:10286000CD988119901CA61A184811A08D2B01BD76
:10287000418021885A0189128B00908093A828AB4F
:10288000A9A038013A108B3A0AB21089101CA0BBDB
:10289000608EA242C87828882002A0D900A608121B
:1028A00093912D280E94A8792C0B000109098B888F
:1028B000E0B2984859AB133CB42800B0A98A929969
:1028C0009808DA8938492811B1130482E80002B166
:1028D00081A1131B1080EBFB0300A001A188F9A8C4
:1028E00090238138C28CD20C102808101B82909B38
:1028F000A081A800AAA01198083A003E11100080FB
:1029000038AB810080A2F00010BB88981290889BA1
:102910005130888189401429A30B200A1023C199C2
:1029200082013408B099998881A15C12488691AAE5
:102930009AA92A022899300300B4010820B80AEDA8
:10294000D110988BA93B0398101302238B90C811C8
:102950002282181D0009E139890EA91A00012001FF
:10296000398A9A984A02828B2128D10BB29A3AB9B5
:10297000933441011904900A383AA1908819209A99
:10298000002D9D2A92B12BB91929E880A8999B2284
:10299000BA1981108903211B820C10980810A338E2
:1029A000D28BB21A988019C8B8802821090A001859
:1029B0002006C10091429A108EB08A01B292B101F4
:1029C0001282C0808A1801191810230491B880005F
:1029D0005192382C043898BAA210B0118AA3080971
:1029E000A0CBA18AA91808202231B1221A0FA03049
:1029F000139B09804E11A0A29A39C183A1AB19087B
:102A00003033D0C8608031EF8A898928918028933B
:102A1000581821A8818029001884990930E0008085
:102A20008115282B29F981BA192F210938992B10E2
:102A3000111A18218A0259A9180AB999209992895C
:102A40002191923BB9A84D0080099000101AA90568
:102A50002BAFDB020C0009809A0809C2800A2230E1
:102A6000A0BD8A18041AA8A0B09091108B01049CF4
:102A70008D08204882A8928829B01888A111F09862
:102A80009998A7C9C89B90A11500A3945A3AE20946
:102A900099118A14F10C3200808A1110B0139083BE
:102AA0003988A90AA31211CA95A0903CC109928243
:102AB00098D99089419A99828CA81D8282192C00FC
:102AC00090990E1122F0BA12988CB22E880048AC60
:102AD0008A32AC818083228320A981880A20F0A2D7
:102AE00002D03821BA898E9B2B1BA81830EAA88AFD
:102AF000C3A86CBC80A92094283900B11E0819080D
:102B0000981818A812140010B88080DA8CA3193114
:102B100028B245A850DA081049AB8BF09AA58898DE
:102B2000188A2FB0488108529CA2A12D81A138A0FB
:102B3000BA8A8832990B188A94C3200309CAB080D4
:102B40001C9222200021AA9E11A422B8F90080988C
:102B500008B03D0B31B889938C9802812C001C90F1
:102B6000251981B8AD8098A801B0C81238B11BBA38
:102B70000C192AAA03A04839229AB918A12FDA0AF7
:102B8000831BA8330289A1220889A0A29B2A1F14B3
:102B90003080C888902192000228098AD3A1ACA372
:102BA00081088A210809301A1A4A9011011913A8BC
:102BB00092AA0011880986220B3300138A9008A07C
:102BC0000938202212028188AB9CAD00D018E1A9FF
:102BD000192BB1A9139238810214130939018A986B
:102BE000091858024910B9A90189A91428A1100986
:102BF0008910009009193211211B989060009808E3
:102C0000A989CA821AA00810BA0A0B0A82AA80AB44
:102C1000018A82108A10380AA2123029438A225867
:102C200019290FABA31B03D82AB1A04108C83391BF
:102C3000F29B991AA14988811C428138830290A194
:102C4000BEAB992003181C28BA8B9A1C8009F2B1DC
:102C500090DCB08029023133B99202182EA04A0BC1
:102C6000B2810299A052903289920AAC00000832D7
:102C700023A02A10931999038B014D18C2BA182367
:102C800088299E80232982610BA8284280B9F28876
:102C9000D029B0811A9119820A1199513D99888DD4
:102CA0000EC1AC09001C0022DA9A0908099C321BEB
:102CB000880002931B020B0108A20120A80A00123F
:102CC000A998A9CA110929889B898A8910A8A20AEA
:102CD000B99CA820D8400381CA10181A9329002350
:102CE00089B2A2BC0683A129210AA931B101998325
:102CF000A9199A88A0B4860288A0848AEA988A884A
:102D0000D020C1120182A94B88318CAE91EA0D22EC
:102D10001039111218900DF8A18B3A829901F9A27D
:102D20009228ACA81C008002C3C1980103201A0C91
:102D30002A9828C390A149288880809B01FE0A31E7
:102D40002D99921AABD81B1C119A2859912D12A9B2
:102D50000D11999A0AB283A0998081D00041820214
:102D600046AA40A0982912C300B104020A93388AE7
:102D700090A399A9B119ABA0283AA930201098B80E
:102D80001D91E111808839B9A91101DB91212880B9
:102D90001B90020C1D9A9212208190B4B989240BC9
:102DA0001A91A92A9018BC29E181251939B11D83EE
:102DB0001AA120C010CA3DF0118C0D031010CDA037
:102DC0001E9A320A89188CDA089504482D9209292E
:102DD000199899091A28390818218A939A101D837D
:102DE0001203B2C02208AA0191D2A2230DB1293147
:102DF0009B890900C49AA919220C8B02212AD19817
:102E000028194281BEA28083A1828981889098DBA3
:102E10008A0388880B91298A138011A1080A9B2CA8
:102E2000122908CEC822299B29A100834B89C011F1
:102E30008B39118A88A9210E2D8AA01A0210909030
:102E40000BA0A1BFA1121A89800080A80A1B3380A1
:102E500009891D1A810A291B0A00412031AB8213FE
:102E600011B200E9900221ACA388200410A92C80A3
:102E7000181C22A818894CDA30AA9B0118A99BAA11
:102E8000AB211BAFBF4A21930A990BD189B10080B6
:102E9000CE80098FA52915480808A994833891196F
:102EA000B0C62088BE08B290A900B88CB288B0190C
:102EB000049338B3BBA9B889800A8C888E09088925
:102EC0008B02A29BA883093FB2001DAB311B8194EA
:102ED000A801198E9AC991AAAAB98092A4288490AF
:102EE00088A0490DCA8838A9A3A118C94808319CEF
:102EF0003194ABC8980DC8B88208B100020A01929B
:102F0000B0110D80811A03988A8081CD90A2318AF8
:102F1000AEA2901B102DB35919208C819009808985
:102F200029AA928833892118915031182830228398
:102F300098DAA888098A98834A901194089009BC65
:102F400021021A13AA18928010900899A19AD439D4
:102F5000C3A9A8C3809080313A2810031B1CB1A8D4
:102F6000AAA1A9832838822388981C3A110908311C
:102F70009A2C1A229E1B08B4B9980B01B2028190B8
:102F80001C822CC9AA10A41890911323A1C108294E
:102F90008990A9B0381080003829AA12108A819B24
:102FA000DB981110998181A8810123ED98105B8035
:102FB0005C8029AA18EC91A99310018019818110D5
:102FC000081C193AA380819938AA39010920119364
:102FD0000B080B2A9200B1818B00E820233393A2C7
:102FE0003193801B114A89DD8A1304908A00112BCA
:102FF00082C9210B832D99193A8AAC1322CB1998D7
:10300000BA909D1200218093CD9181ADD9128A3062
:10301000102192A12112D280A5300202DC03088285
:10302000108B01199B0B10A231010201191A18898A
:10303000CE1B00098A088E913D03C91308A34B8853
:1030400092AF29081480900B281101B80B800A91C7
:1030500002101D3A0000EA02CC89BABB229218B2D3
:10306000908831208A80B92803185ACA091AC08367
:10307000199128A002FBF088901B8F18A02580B220
:10308000900898621BA1B9898B102098AA12BA19CE
:103090004008214048A9C1A30211281A082BA813EF
:1030A000019291009880004402182A1D89D2803133
:1030B00000AB1AD200109898A1910BD9C934A1AADB
:1030C000923989022909958110A8FA928094CA9AA6
:1030D0009830112002111F189291A1A8199AA81FC7
:1030E000B08188102249AB2B48BA9C8A0910092A62
:1030F000803E2910B91E1AF8A30CAB028110D9C169
:10310000820102092C8098A9982801D09B211A9944
:1031100029A311080081133B18108A808DB15B80B0
:10312000101B8020AA002A199A58105C898B1A1C3F
:103130001C38902A2EB922C9A99919B1F42CC020A3
:10314000919AB990A1803A84B00CAE0901A9A80463
:1031500004899212A1324FC9B2901118ACA2183151
:10316000C839832215819842808938A9B08CB984E6
:103170000A8812991309009280202098AA028BB124
:10318000210CC0999B942992911110383211B2CA26
:103190000C84A000099310898EBB08AC59980911C2
:1031A00048B0130C8BC92CB89201A101A029290A9F
:1031B0001C118C100BA92399339924880230920397
:1031C0008118A924ABA31211C899818480AA180C74
:1031D0002B41810920803CCA22830008338BB20C2A
:1031E0008A0A22A8C380195098998B192118F2B81D
:1031F000AA0A9900B203A324F1A8A11AB10D0208EA
:10320000B29080191318C18A293293F9CA110A00A1
:1032100093A3101B1339B3331811A009999A10A85E
:103220000A080029D280404181994BC9498AAA8461
:1032300030B2C8B0098AC08088899810C123C1C43F
:10324000BC190031131AC128002C1B90F11BC0A21D
:1032500019A800B120120214AB90A0822A9929A2C9
:10326000BB88B00131BC1029BD10E09BA08912A120
:10327000B09A801A824014619912808801A838118E
:10328000109222AA9C08008A29CD1A41949CF10927
:10329000A00909C102A38D84900891B91C3D22891F
:1032A0000208380A1018E00800A12B8110190280CA
:1032B00020815B200309CA1019AD8BCB81220890B5
:1032C00013C03E99483CAD82808081112D001C18AE
:1032D000310A2083C00C8800820CBF288213B9B940
:1032E000C1638C04491CC31A598908C0A0A9C0B87D
:1032F0008A99222A2819480B8E8109933BB892BBE0
:103300008EC28A83313D1003AA1B0D2B921B21090B
:10331000BBC099BA841392101E980881C20981A477
:103320009C29202C82A10302B21ABA91C80188C03C
:103330000C00AAC102910014818192B01C142CA12E
:103340002B30AB09399CA809189AD898D018A00B33
:103350001AAA9BA9B34B28B99B20AA11BAB8A88B6B
:1033600008F00982002A9BB2C0A2BB818B1A8B0B8A
:10337000BA8391B42294899C2B9D98DA8038A29BC1
:103380009C81C8B4B3B188082182B2B29A9289A252
:10339000899A11AB890998C9B91022B98002A891FC
:1033A00089A10138BABAA9BA0039199A23AAB81062
:1033B00023A2B29A2CB9098B1AA931AA199989A109
:1033C00099CA88A081180291A9AA080129A123906D
:1033D00009882A20A88C92C9C08AA9892BB9288873
:1033E000B920111ABBC2CA188BAA0089A20BB290CD
:1033F000081A0B890AA819212A88AAB1128D11313D
:10340000CC8B1B0039B1B9A09B90C310982A8BA319
:1034100018B800B0C9BA82A2B3A8BA33C399988BBE
:1034200013A1B190B88A2889C232BAB3B9A09A0A56
:10343000A112092B9820AA099B0BA8989BB4992A42
:103440008B8A189CCA810A9902892A3BB031A21A38
:103450009C29829AB18A0801B18202AA900A30CAD4
:10346000228891BB022921409BAC1B8A19B92B2AC7
:10347000C08BC2881A9AAB989802882A0B9A0A03C2
:10348000EAEAEAEAEAEAEAEAEAEAEAEAEAEAEAEA9C
:10349000EAEAEAEAEAEAEAEAEAEAEAEAEAEAEAEA8C
:1034A000EAEAEAEAEAEAEAEAEAEAEAEAEAEAEAEA7C
:1034B000EAEAEAEA0B401E06F2EAEAEAEAEAEAEA9D
:1034C000EAEAEAEA1C7C7F7342FDEAEAEAEAEAEA0F
:1034D000EAEAEAEAF4123A617C46EAEAEAEAEAEA65
:1034E000EAEAEAEAEAEAEAF02F64F5EAEAEAEAEA6C
:1034F000EAEAEAEAEAEAEAEB2C68F5EAEAEAEAEA60
:10350000EAEAEAEAEAEAEAF0446AF4EAEAEAEAEA31
:10351000EAEAEAEAEAEAEAF34D63EEEAEAEAEAEA22
:10352000EAEAEAEAEAEAEAF34D60EAEAEAEAEAEA19
:10353000EAEAEAEAEAEAEAF34D60EAEAEAEAEAEA09
:10354000EAEAEAEAEAEAEAF34D60EAEAEAEAEAEAF9
:10355000EAEAEAEAEAEAEAEF3E61ECEAEAEAEAEAF9
:10356000EAEAEAEAEAEAEAEA1247F2EAEAEAEAEA2E
:10357000EAEAEAEAEAEAEAEAECF0EBEAEAEAEAEAA2
:10358000ECECECECECECECECECECECECECECECEC7B
:10359000ECECECECECECECECECECECECECECECEC6B
:1035A000ECECECECECECECECFC4506ECECECECECD8
:1035B000ECECECECECECECEC056A2AEEECECECEC74
:1035C000ECECECECECECECEC1C7732EFECECECEC37
:1035D000ECECECECECECECF2407D13ECECECECEC19
:1035E000ECECECECECECEC0363790DECECECECECDF
:1035F000ECECECECECECED217864F9ECECECECECC4
:10360000ECECECECECECF0477E41EFECECECECECB1
:10361000ECECECECECEC066A700DECECECECECECAD
:10362000ECECECECECEC2F7D64FDECECECECECEC7D
:10363000ECECECECECEC367F44EDECECECECECEC94
:10364000ECECECECECEC35772BECECECECECECECA7
:10365000ECECECECECEC103BFDECECECECECECEC26
:10366000ECECECECECECECECECECECECECECECEC9A
:10367000ECECECECECECECECECECECECECECECEC8A
:10368000EBEBEBEBEBEBEBEBEBEBEBEBEBEBEBEB8A
:10369000EBEBEBEBEBEBEBEBEBEBEBEBEBEBEBEB7A
:1036A000EBEBEBEBEBEBEBEBEBEBEBEBEBEBEBEB6A
:1036B000EBEBEBEBEBEBEBF00B313000ECEBEBEB94
:1036C000EBEBEBEBEBECFB29503E384600EBEBEB86
:1036D000EBEBEBEBEE0A4C3A03EEF24618EBEBEBBE
:1036E000EBEBEBED1C5E1DF1EBEB01632FECEBEB79
:1036F000EBEBEB07571DEDEBECF7415A07EBEBEB70
:10370000EBEBED3743F2EBECFC4D761EEDEBEBEB28
:10371000EBEBEF4421F4001D457F48F4EBEBEBEBC2
:10372000EBEBEE375B544B26336F08EBEBEBEBEB3D
:10373000EBEBEBF5100EF8F33E41EEEBEBEBEBEBC6
:10374000EBEBEBEBEBEBEBFD5412EBEBEBEBEBEB27
:10375000EBEBEBEBEBEBEB0E44F3EBEBEBEBEBEB35
:10376000EBEBEBEBEBEBEB0827EFEBEBEBEBEBEB4C
:10377000EBEBEBEBEBEBEBECEEEBEBEBEBEBEBEB95
:10378000ECECECECECECECECECECECECECECECEC79
:10379000ECECECECECECECECECECECECECECECEC69
:1037A000ECECECECECF3F1ECECECECECECECECEC4D
:1037B000ECECECFA294E26EEECECECECEFEFECEC5A
:1037C000ECECF5436D3F06ECECECECF83032F8EC49
:1037D000ECEC026C41F2ECECECECF43B725904ECD6
:1037E000ECEC0A721BECECECECEC247A41F2ECEC25
:1037F000ECECFE6037F3ECECECF4597210ECECEC12
:10380000ECECEF2B642EFBF1EE067354F7ECECECD2
:10381000ECECECF22D73644E32427F35EFECECECC5
:10382000ECECECECF31C4C5B687F7A1CEEECECEC03
:10383000ECECECECECEDF0F2FF477208ECECECECAD
:10384000ECECECECECECECECEC137027F3ECECECCB
:10385000ECECECECECECECECECF5465913ECECECB1
:10386000ECECECECECECECECECECEEFAEEECECEC86
:10387000ECECECECECECECECECECECECECECECEC88
:10388000496E666572656E6365206F662053616D73
:10389000706C652025640950726564696374696F92
:1038A0006E3A20256C64094C6162656C3A2025648F
:1038B000090A000020202020202020202020202075
:1038C0002020202020205349464956452C20494E8F
:1038D000432E0000202020202020202020202035E2
:1038E0003535353535353535353535353535353588
:1038F00035353535353535350000000020202020A0
:103900002020202020203535353520202020202063
:103910002020202020202020202020202035353568
:1039200035000000202020202020202020353535A3
:103930003520202020202020202020202020202072
:103940002020202020203535353500002020202063
:103950002020202035353535202020202020202013
:103960002020202020202020202020202020203542
:1039700035353500202020202020203535353520D4
:103980002020202020203535353535353535353565
:1039900035353535353535353535353500000000AB
:1039A00020202020202035353535202020202020C3
:1039B00020353535353535353535353535353535CC
:1039C000353535353535353535000000202020209A
:1039D0002035353535202020202020202020202093
:1039E00020202020202020202020202020202020D7
:1039F000202035353535000020202020353535355F
:103A000020202020202020202020202020202020B6
:103A10002020202020202020202020202020203591
:103A20003535350020202035353535202020202023
:103A30002020202020202020202020202020202086
:103A40002020202020202020202020203535353522
:103A50000000000020203535353535353535353514
:103A60003535353535353535353535353535353506
:103A700035352020202020202020202035353535C8
:103A80003500000020202035353535352020202018
:103A90002020202020202035353535353535353569
:103AA00020202020202020202020203535353535AD
:103AB000000000002020202020353535353520201D
:103AC000202020202020202020353535353520208D
:103AD00020202020202020202035353535350000BD
:103AE000202020202020203535353535202020206D
:103AF00020202020202020352020202020202020B1
:103B000020202035353535350000000020202020CC
:103B1000202020202035353535352020202020203C
:103B20002020202020202020202020202035353556
:103B30003535000020202020202020202020203586
:103B40003535353520202020202020202020202021
:103B5000202020353535353500000000202020207C
:103B600020202020202020202035353535352020EC
:103B7000202020202020202020353535353500001C
:103B80002020202020202020202020202020203520
:103B90003535353520202020202020353535353568
:103BA0000000000020202020202020202020202095
:103BB000202020202035353535352020203535355D
:103BC000353500002020202020202020202020200B
:103BD0002020202020202035353535353535353528
:103BE0000000000020202020202020202020202055
:103BF000202020202020202020353535353500009C
:103C000020202020202020202020202020202020B4
:103C1000202020202020203500000000202020200F
:103C2000202020202020202020202057656C636F3A
:103C30006D6520746F205369466976652100000028
:103C4000726564004C443000677265656E00000068
:103C5000626C7565000000004174206C65617374CE
:103C6000206F6E65206F66204C4544732069732079
:103C70006E756C6C2E000000435055206E756C6C98
:103C80002E00000043505520696E74657272757085
:103C90007420636F6E74726F6C6C65722069732030
:103CA0006E756C6C2E0000005374617274696E67DF
:103CB000204D4E49535420696E666572656E63658A
:103CC0002E2E2E0054494D455220696E7465727235
:103CD00075707420636F6E74726F6C6C657220699E
:103CE0007320206E756C6C2E0000000054494D4509
:103CF0005220696E746572727570742068616E64AA
:103D00006C657220726567697374726174696F6E35
:103D1000206661696C65640043505520696E746566
:103D2000727275707420656E61626C65206661697F
:103D30006C6564000000000000000000000000004E
:103D40000000000000000000000000000000000073
:103D50000000000000000000000000000000000063
:103D60000000000000000000000000000000000053
:103D70000000000000000000000000000000000043
:103D80000000000000000000000000000000000033
:103D900000000000232D302B20000000686C4C0038
:103DA0006566674546470000303132333435363773
:103DB0003839414243444546000000003031323337
:103DC0003435363738396162636465660000000057
:103DD000F42600000A270000CA260000CA260000B8
:103DE000CA260000CA2600000A270000CA260000D2
:103DF000CA260000CA260000CA2600006228000069
:103E00007227000000280000CA260000CA26000011
:103E100092280000CA26000072270000CA2600006F
:103E2000CA26000008280000F46B10209A6D1020AC
:103E30007E6D102000000000000000009E70102029
:103E4000D27010207C6C1020566D1020EE6D10206A
:103E5000A66E10200000000000000000000000001E
:103E60000000000000000000000000000000000052
:103E7000000000005E6F1020286B10200000000082
:103E80000000000000000000000000007C82102004
:103E9000E2821020E28210208E821020E282102026
:103EA000E2821020E2821020A0821020E282102004
:103EB000E2821020E2821020B2821020E2821020E2
:103EC000E2821020E2821020E2821020C4821020C0
:103ED000C4821020C4821020C4821020C48210200A
:103EE000C4821020C4821020C4821020C4821020FA
:103EF000C4821020C4821020C4821020C4821020EA
:103F0000C4821020C4821020C48210204483102058
:103F10008086102064861020000000000000000051
:103F200000000000000000002884102000000000B5
:103F30000C861020388610200000000000000000D1
:103F40000000000000000000000000000000000071
:103F50000000000000000000D486102000000000D7
:103F60000000000000000000000000000000000051
:103F7000F086102060871020A68710200C88102063
:103F8000828810209C881020B0881020CA881020B9
:103F9000DE88102040891020A2891020028A10207B
:103FA000228A1020688A1020968A1020B48A102055
:103FB000D48A1020DE8E10200000000000000000D7
:103FC00000000000000000000000000000000000F1
:103FD0003A90102000000000FC9010204C9110201E
:103FE0000000000000000000CC9110209C911020E7
:103FF000448D1020DE8C1020000000000000000026
:104000000000000000000000F491102090921020A9
:104010002C931020A093102001000000200000002D
:10402000001BB70000366E01010000001F000000F9
:10403000030000003F00000001000000200000001D
:1040400000366E01006CDC02030000001F0000005F
:10405000020000003F00000001000000100000000E
:10406000808D5B00001BB700000000001F000000F7
:10407000030000003F0000000100000010000000ED
:10408000001BB70000366E01010000001F00000099
:10409000020000003F0000000100000010000000CE
:1040A00000366E01006CDC02030000001F000000FF
:1040B000020000001F0000000100000008000000D6
:1040C000808D5B00001BB700000000001F00000097
:1040D000030000001F0000000100000008000000B5
:1040E000001BB70000366E01010000001F00000039
:1040F000020000001F000000010000000800000096
:1041000000366E01006CDC02030000001F0000009E
:10411000020000000F000000010000000400000089
:10412000808D5B00001BB700000000001F00000036
:10413000030000000F000000010000000400000068
:10414000001BB70000366E01010000001F000000D8
:10415000020000000F000000010000000400000049
:1041600000366E01006CDC02030000001F0000003E
:104170000200000007000000010000000200000033
:10418000808D5B00001BB700000000001F000000D6
:10419000020000000F00000001000000020000000B
:1041A000001BB70000366E01010000001F00000078
:1041B000010000000F0000000100000002000000EC
:1041C00000366E01006CDC02030000001F000000DE
:1041D00001000000070000000200000001000000D4
:1041E000808D5B00001BB700000000001F00000076
:1041F00001000000070000000200000001000000B4
:10420000001BB70000366E01010000001F00000017
:104210000100000003000000020000000100000097
:1042200000366E01006CDC02030000001F0000007D
:1042300003000000FFFFFFFF04000000010000007A
:10424000808D5B00001BB700000000001F00000015
:104250000300000000000000040000000100000056
:10426000001BB70000366E01010000001F000000B7
:1042700003000000FFFFFFFF04000000010000003A
:1042800000366E01006CDC02030000001F0000001D
:1042900002000000FFFFFFFF060000000100000019
:1042A000808D5B00AAC2A200000000002300000075
:1042B00001000000020000000600000001000000F4
:1042C000AAC2A200001BB7000000000017000000F7
:1042D00003000000FFFFFFFF0600000001000000D8
:1042E000001BB7000024F400010000002F000000B4
:1042F00003000000FFFFFFFF0600000001000000B8
:104300000024F40080A81201010000001700000042
:1043100002000000FFFFFFFF060000000100000098
:1043200080A812015585450102000000230000000D
:1043300002000000FFFFFFFF080000000100000076
:10434000808D5B00001BB700000000001F00000014
:1043500003000000FFFFFFFF080000000100000055
:10436000001BB70000366E01010000001F000000B6
:1043700002000000FFFFFFFF080000000100000036
:1043800000366E01006CDC02030000001F0000001C
:1043900001000000FFFFFFFF0A0000000100000015
:1043A000808D5B00007C9200000000002700000070
:1043B00003000000FFFFFFFF0A00000001000000F3
:1043C000007C9200001BB7000000000013000000FA
:1043D00002000000FFFFFFFF0A00000001000000D4
:1043E000001BB70000F824010100000027000000B6
:1043F00002000000FFFFFFFF0A00000001000000B4
:1044000000F8240100366E010100000013000000D6
:1044100001000000FFFFFFFF0A0000000100000094
:1044200000366E0100F04902030000002700000082
:1044300001000000FFFFFFFF0C0000000100000072
:10444000808D5B0000127A00000000002F00000049
:1044500003000000FFFFFFFF0C0000000100000050
:1044600000127A00001BB7000000000017000000D7
:1044700002000000FFFFFFFF0C0000000100000031
:10448000001BB7000024F400010000002F00000012
:1044900002000000FFFFFFFF0C0000000100000011
:1044A0000024F40000366E01010000001700000037
:1044B00001000000FFFFFFFF0C00000001000000F2
:1044C00000366E0180C3C901030000002F00000008
:1044D00001000000FFFFFFFF0C00000001000000D2
:1044E00080C3C9010048E801030000002F0000005C
:1044F00001000000FFFFFFFF0E00000001000000B0
:10450000808D5B00B6A1680000000000370000004D
:1045100003000000FFFFFFFF0E000000010000008D
:10452000B7A16800001BB700000000001B000000DE
:1045300002000000FFFFFFFF0E000000010000006E
:10454000001BB7006D43D1000100000037000000E0
:1045500002000000FFFFFFFF0E000000010000004E
:104560006E43D10000366E01010000001B00000008
:1045700001000000FFFFFFFF0E000000010000002F
:1045800000366E01DB86A201030000003700000048
:1045900001000000FFFFFFFF10000000010000000D
:1045A000808D5B00001BB700000000001F000000B2
:1045B00002000000FFFFFFFF1000000001000000EC
:1045C000001BB70000366E01010000001F00000054
:1045D00001000000FFFFFFFF1200000001000000CB
:1045E000808D5B00AAC2A200000000002300000032
:1045F00002000000FFFFFFFF1200000001000000AA
:10460000ABC2A200001BB7000000000011000000B8
:1046100001000000FFFFFFFF12000000010000008A
:10462000001BB70055854501010000002300000074
:1046300001000000FFFFFFFF140000000100000068
:10464000808D5B00007C92000000000027000000CD
:1046500002000000FFFFFFFF140000000100000047
:10466000007C9200001BB700000000001300000057
:1046700001000000FFFFFFFF140000000100000028
:10468000001BB70000F82401010000002700000013
:1046900001000000FFFFFFFF160000000100000006
:1046A000808D5B00E82A8500000000002B000000E0
:1046B00002000000FFFFFFFF1600000001000000E5
:1046C000E92A8500001BB70000000000150000006B
:1046D00001000000FFFFFFFF1600000001000000C6
:1046E000001BB700D1550A01010000002B0000009B
:1046F00001000000FFFFFFFF1800000001000000A4
:10470000808D5B0000127A00000000002F00000086
:1047100002000000FFFFFFFF180000000100000082
:1047200000127A00001BB700000000001700000014
:1047300001000000FFFFFFFF180000000100000063
:10474000001BB7000024F400010000002F0000004F
:1047500001000000FFFFFFFF1A0000000100000041
:10476000808D5B0027AE7000000000003300000069
:1047700002000000FFFFFFFF1A0000000100000020
:1047800028AE7000001BB7000000000019000000F8
:1047900001000000FFFFFFFF1A0000000100000001
:1047A000001BB7006658E100010000003300000064
:1047B00001000000FFFFFFFF1C00000001000000DF
:1047C000808D5B00B6A1680000000000370000008B
:1047D00002000000FFFFFFFF1C00000001000000BE
:1047E000B7A16800001BB700000000001B0000001C
:1047F00001000000FFFFFFFF1C000000010000009F
:10480000001BB7006D43D10001000000370000001D
:1048100001000000FFFFFFFF1E000000010000007C
:10482000808D5B0000A86100000000003B000000DC
:1048300002000000FFFFFFFF1E000000010000005B
:1048400000A86100001BB700000000001D00000070
:1048500001000000FFFFFFFF1E000000010000003C
:10486000001BB7000050C300010000003B00000027
:1048700001000000FFFFFFFF20000000010000001A
:10488000808D5B00001BB700000000001F000000CF
:1048900001000000FFFFFFFFC4961020709710205A
:1048A000489B10204C443072656400004C443067D3
:1048B0007265656E000000004C4430626C756500E6
:1048C00000000000129E10204A9E1020969E10208C
:1048D000D89E10201A9F102074A41020F2A410203B
:1048E0000AA5102026A5102074A5102058A5102078
:1048F00090A51020C6A51020B4A710207AA61020DD
:1049000092A61020AEA61020FCA61020E0A6102033
:1049100018A710204EA710209EA110205EA11020E5
:10492000E4A110200EA210203AA2102080A2102094
:10493000C0A2102000A3102046A3102086A31020A0
:10494000E8A3102032A4102038A61020C0A7102001
:10495000E0A71020E0AD102080AB10205CAA102052
:10496000C2AB102018AC102038AC102038A9102091
:1049700058A9102078A91020B2A91020EAA9102067
:1049800024AA10208CAA1020D6AA102006AB102032
:1049900050AB102000000000A049102000000000D3
:1049A0006C6962676C6F73730000000000000000A8
:1049B000317122DF8001232EA4F4232CB4F4232AA6
:1049C000C4F42328D4F42326E4F42324F4F4832722
:1049D00084F52326F4FE232404FEEDA68327C4F5E4
:1049E0002322F4FE232004FE032744F585476317A2
:1049F000F708232E04FCA5A88327C4FE13874700CD
:104A00002326E4FE9C43232CF4FC232A04FCA9A0C7
:104A1000832744FE138717002322E4FE83870700C1
:104A20002326F4F6832784FD63C707008327C4F693
:104A3000B307F04019A08327C4F6032704FEBA97F2
:104A40002320F4FE832784FD8607232CF4FC832790
:104A500044FD8507232AF4FC032744FDFD47E3F9C1
:104A6000E7FA8327C4FD93870702232EF4FC03276C
:104A7000C4FD832704F5E361F7F83DA6032744F559
:104A800089476318F70A232804FC69A88327C4FE12
:104A9000138747002326E4FE9C432326F4FC2324AB
:104AA00004FCBDA0832744FE138717002322E4FEE5
:104AB00083870700232AF4F68327C4FC63D7070003
:104AC000832744F7B307F04019A0832744F723282E
:104AD000F4F6032704FE832704F7BA972320F4FE95
:104AE0000327C4FCB7070040F98F89CB832704F75D
:104AF0008607032704FEBA972320F4FE8327C4FC0D
:104B00008A072326F4FC832784FC85072324F4FCEE
:104B1000032784FCBD47E3F7E7F8832704FDC107BB
:104B20002328F4FC032704FD832704F5E360F7F64C
:104B3000A5AC032744F591476314F70A232204FC2C
:104B400049A88327C4FE138747002326E4FE9C431D
:104B50002320F4FC232E04FA9DA0832744FE138710
:104B600017002322E4FE83870700232EF4F6832711
:104B7000C4F785CF832704FC63D707008327C4F7D6
:104B8000B307F04019A08327C4F7232CF4F683273A
:104B900004FCF18313F77700832784F73307F702C8
:104BA000832704FEBA972320F4FE832704FC920790
:104BB0002320F4FC8327C4FB8507232EF4FA032764
:104BC000C4FB9D47E3FBE7F8832744FCA1072322AE
:104BD000F4FC032744FC832704F5E364F7F6E9A219
:104BE000032744F5B1476316F708232C04FA9DA860
:104BF0008327C4FE138747002326E4FE9C43232A11
:104C0000F4FA232804FAA9A0832744FE1387170087
:104C10002322E4FE838707002322F4F8832744FB42
:104C2000F1872320F4F8032744F8832704F8B30717
:104C3000F702032704FEBA972320F4FE832744FBE0
:104C40009207232AF4FA832704FB85072328F4FA22
:104C5000032704FB9D47E3F9E7FA832784FBA107B9
:104C6000232CF4FA032784FB832704F5E362F7F887
:104C700025AA032744F5C1476316F708232604FA3B
:104C80009DA88327C4FE138747002326E4FE9C4388
:104C90002324F4FA232204FAA9A0832744FE1387CD
:104CA00017002322E4FE838707002326F4F88327D6
:104CB00084FAE1872324F4F80327C4F8832784F8CF
:104CC000B307F702032704FEBA972320F4FE8327D5
:104CD00084FAA2072324F4FA832744FA85072322BF
:104CE000F4FA032744FA8D47E3F9E7FA8327C4FA75
:104CF00091072326F4FA0327C4FA832704F5E36215
:104D0000F7F85DA0032744F5D147631FF708232078
:104D100004FA69A08327C4FE138747002326E4FE14
:104D20009C43232EF4F8232C04F8B9A8832744FECF
:104D3000138717002322E4FE83870700232AF4F851
:104D40008327C4F963D70700832744F9B307F040EA
:104D500019A0832744F92328F4F88327C4F9F183A1
:104D60009D8B032704F9B317F700032704FEBA97B6
:104D70002320F4FE8327C4F99207232EF4F8832717
:104D800084F98507232CF4F8032784F99D47E3FF72
:104D9000E7F8832704FAA1072320F4FA032704FA8B
:104DA000832704F5E368F7F6832784FE8A07032741
:104DB00084F4BA97032704FE98C3832784FE8507EB
:104DC0002324F4FE032784FE8327C4F4E368F7C09A
:104DD000010001007A5429618280000000000080F7
:104DE00022941020A6941020229510209695102031
:104DF000C09C1020EE9C1020E2B2102002B31020C4
:104E0000397122DE80002326A4FC2324B4FC232253
:104E1000C4FCB707008085072326F4FE9307F00F34
:104E20002324F4FE232E04FC35A88327C4FD8A071F
:104E30000327C4FCBA979C430327C4FE635FF700B3
:104E40008327C4FD8A070327C4FCBA979C43232603
:104E5000F4FE8327C4FD2324F4FE8327C4FD8507C5
:104E6000232EF4FC0327C4FD832744FCE36FF7FAE9
:104E70008327C4FE9D872322F4FE232004FE19A865
:104E8000832704FE85072320F4FE832744FE8583C1
:104E90002322F4FE832744FEE5F7832704FE05471B
:104EA000B317F7008587232AF4FC232C04FC51A0B8
:104EB000832784FD8A070327C4FCBA979C4363DADF
:104EC0000700032784FC832784FDBA97238007000B
:104ED000A1A8832784FD8A070327C4FCBA979843B7
:104EE000832744FD3E97832704FEB357F7402328CA
:104EF000F4FC032704FD9307F00763DCE7000327B6
:104F000084FC832784FDBA971307F0072380E7000A
:104F100021A8032784FC832784FDBA97032704FD77
:104F2000620761872380E700832784FD8507232CA0
:104F3000F4FC032784FD832744FCE36BF7F6832707
:104F400084FE3E85725421618280497123261116A8
:104F500023248116801A232EA4E8AE873287A30D5E
:104F6000F4E8BA87230DF4E89307C4EE13070004AE
:104F7000930600101146B7051020938505340325CC
:104F8000C4E93D341307C4EA9307C4EE13060004D2
:104F9000BA853E85B5359307C4EE1305C4EA1307F9
:104FA0000004930600041146B725102093850534AC
:104FB00001341307C4EA9307C4EE13060004BA854C
:104FC0003E853D3D9307C4EE1305C4EA1307000474
:104FD000930600041146B7351020938505B4C93AED
:104FE0001307C4EA9307C4EE13060004BA853E858E
:104FF000013DAA872326F4FE9307C4EE1305C4EAF5
:105000002947930600041146B735102093850534CF
:1050100045321307C4EA9307C4EE2946BA853E8594
:10502000C533AA872326F4FE8347A4E90347B4E9DE
:10503000BA860326C4FEBE85B747102013850788AD
:10504000D12601008320C116032481167561828058
:10505000411106C622C400082945E5262945D52662
:10506000B74710201385478BAD232945D92EB74765
:1050700010201385478DB12BB74710201385C78F9C
:10508000892BB747102013854792A123B7471020DB
:105090001385C7943D2BB747102013854797152BD1
:1050A000B74710201385079A2D23B7471020138583
:1050B000C79C0523B74710201385879F192BB74737
:1050C0001020138547A23123B7471020138547A529
:1050D0000923B7471020138547A8E529B7471020B3
:1050E000138547ABFD21B7471020138507AED521A7
:1050F000B74710201385C7B0E929B747102013859B
:1051000047B3C129B74710201385C7B5D921B74781
:105110001020138507B87529B7471020138547BAA3
:105120004D29B7471020138547BC6521B74710208C
:10513000138547BE7929B7471020138507C0512929
:10514000294501262945F52CB74710201385C7C1ED
:1051500049210100B240224441018280011106CE62
:1051600022CC00102326A4FE2324B4FE03A7818DA5
:1051700083A7418EBE853A85EF108072054723A034
:10518000E18E0100F240624405618280011106CE89
:1051900022CC26CA00102326A4FE23A0018E0325BC
:1051A000C4FEEF10007583A4418D83A7418D3E8519
:1051B000EF1060542A86AE86216581453307A6002C
:1051C0003A883338C800B387B600B306F800B6870C
:1051D000BA853E862685EF10A05403A7818D83A74C
:1051E000418EBE853A85EF10C068010083A7018E0D
:1051F000F5DF23A0018E0325C4FEEF10C07101006E
:10520000F2406244D24405618280011106CE22CC74
:105210000010B7471020938507C4B74710201385A7
:1052200047C4EF1080712326A4FEB7471020938552
:1052300087C4B7471020138547C4EF10007023249C
:10524000A4FEB7471020938507C5B74710201385E4
:1052500047C4EF10806E2322A4FE8327C4FE99C7A3
:10526000832784FE81C7832744FE81EBB747102044
:10527000138587C5B92E854749A20325C4FEEF10C3
:105280000065032584FEEF108064032544FEEF10C3
:1052900000640325C4FEEF100068032584FEEF10B0
:1052A0008067032544FEEF100067EF10C054AA8703
:1052B0003E85EF1060512A8723AAE18C83A7418D98
:1052C00081EBB7471020138587C72126894735A270
:1052D00083A7418D3E85EF10C04C2A8723AEE18C19
:1052E00083A7C18D81EBB7471020138547C8D5240C
:1052F0008D4721A283A7C18D3E85EF106051893B68
:10530000B7471020138587CAE9249D470546BE8507
:10531000B7371020138507480D3985470946BE85E4
:10532000B7371020138507580D31A5470D46BE85A8
:10533000B737102013850768093991471146BE8594
:10534000B737102013850778093183A7418D3E8533
:10535000EF1060402A8723ACE18C83A7818D81EB1D
:10536000B7471020138547CCAD24914779A083A778
:10537000818D3E85EF10C04983A7418D3E85EF109A
:10538000E03F2A8723A2E18E03A7818D83A5418E6A
:1053900083A7418DBE86B75710201386C7153A855F
:1053A000EF1040492320A4FE832704FE63DC07009E
:1053B000B74710201385C7CE292C832704FEB307D7
:1053C000F04025A883A7C18D81453E85EF10604A36
:1053D0002A87FD576319F700B7471020138587D137
:1053E000CD2A994719A80325C4FE4D33032584FE11
:1053F000713B032544FE593BFDB73E85F2406244B4
:10540000056182805D7122D406D62A842EDA32DCD0
:1054100036DEBAC0BEC2C2C4C6C617B5EF5F03252A
:10542000656611C51C4D81E72AC6D12332450C455E
:105430005418228636CEEF00902AB2502254616171
:105440008280AA8517B5EF5F0325C56311CD1C4D7A
:1054500081EF011106CE2EC62AC4512B2245B2453A
:10546000F2401045056119A01045F5BF011122CC8D
:1054700006CE2A8401C91C4D91E732C62EC4852B65
:105480003246A24597F7FFFF9387078F6315F60211
:1054900050401C46FD171CC663DF0702184E63C749
:1054A000E70093F7F50F29476397E70222856244E7
:1054B000F24005612DA297F7FFFF9387E7896314F8
:1054C000F6001044F9B797F7FFFF9387E786E312DA
:1054D000F6FC50447DBF1C4213F5F50F13871700EF
:1054E00018C22380B700F240624405618280011136
:1054F00026CA06CE22CC4AC84EC652C4AA8419E196
:105500001C4502901C4D2E899DEFD5219C4C80445A
:105510008DCF97F7FFFF93872786631BF402C04068
:105520008357C400A18B99C31C48C9EBA28526856B
:10553000BD2249C57D55F2406244D2444249B24938
:10554000224A056182800045E9B726854D21D1B701
:1055500097F7FFFF938747806314F4008044C9B72F
:1055600097E7FFFF9387477DE31CF4FAC0444DBFE4
:105570001CC4050963C907021C401387170018C023
:105580002380B7001C4483450900FD17F5F11CC4B6
:1055900063D907022286A94526859120FD57E30B92
:1055A000F5F8294549BF184C63C4E700E39645FD6B
:1055B000228626852D20E31735FDADBFFD59294AEA
:1055C000D1B71C401387170018C029472380E70074
:1055D000C9BFAA8517B5EF5F0325C54A09BF0111E9
:1055E00022CC26CA4AC806CE4EC6AA842E89328448
:1055F00001C51C4D91E3E52E97E7FFFF9387C77721
:105600006318F402C0401C4C1CC48357C400A18B17
:1056100099C31C4895EFA2852685512015C97D594F
:10562000F2406244D244B2494A85424905618280CF
:1056300097E7FFFF938747726314F4008044E1B754
:1056400097E7FFFF9387476FE31FF4FAC04465BFF6
:105650001C4808409379F90F1379F90F1D8D5C48A8
:105660006346F500A2852685B52455F91C44050539
:10567000FD171CC41C401387170018C02380370176
:105680005C486389A7008357C400858BD1DBA94799
:10569000E318F9F8A2852685352C59D149B741116F
:1056A00022C426C24AC006C697B4EF5F83A4843DD5
:1056B0002A892E8489C49C4C99E326850D2E97E770
:1056C000FFFF9387676B6314F402C0408317C40025
:1056D00013F787002DEB13F7070115EB2547232060
:1056E000E90093E707042316F4007D5559A897E7CE
:1056F000FFFF938767666314F4008044C1BF97E798
:10570000FFFF93876763E313F4FCC044C1B7918B39
:105710008DC74C5889C9930744046384F5004A85B2
:10572000D523232A04028357C4002322040093F7BD
:10573000B7FD2316F4001C481CC08357C40093E730
:1057400087002316F4001C4881EF8357C400130719
:10575000002093F707286385E700A2854A85B129D1
:105760008317C40013F717001DC3584823240400EF
:105770003307E04018CC1848014501E713F7070844
:105780002DF3B2402244924402494101828013F732
:105790002700814611E3544814C4F1BF8397C50024
:1057A000011122CC26CA06CE4AC84EC613F787007E
:1057B000AA842E8469E7D8416345E000B841635864
:1057C000E008585449C7B18303A90400858B23A07E
:1057D00004000C50B9CB70488357C400918B99C713
:1057E0005C401D8E5C5899C33C401D8E5C540C502F
:1057F000814626858297FD57630DF5041C48056791
:10580000232204001CC08357C400F98F91C368C8C9
:105810004C5823A0240185CD930744046384F500EC
:105820002685CD21232A04021DA001468546268512
:105830000297FD572A86E311F5FA9C40D1DF7547A0
:105840006385E70059476395E70623A024010145D6
:10585000BDA098408317C40001CFF5466305D7006B
:10586000D9466319D7041C48232204001CC04DB735
:105870001848B1832322040018C0858B41BF83A937
:105880000501E38609FC03A905008D8B23A03501E2
:1058900033093941014791E3D84918C4E35920FB42
:1058A0001C540C50CA864E86268582976340A002FF
:1058B0008317C40093E707042316F4007D55F240D4
:1058C0006244D2444249B24905618280AA993309AF
:1058D000A940E9B79C49B9CF011122CC06CE2A8450
:1058E00011C51C4D81E72EC61922B24597E7FFFF6F
:1058F00093878748639BF5004C408397C50095C705
:1059000022856244F240056151BD97E7FFFF93870E
:10591000A7446394F5000C44CDB797E7FFFF938746
:10592000A741E39CF5FC4C44C9BFF24062440145E9
:105930000561828001458280411122C406C62A8405
:105940002316B5002317C5002320050023220500D8
:10595000232405002322050623280500232A050009
:10596000232C0500214681451305C505C52C971735
:1059700000009387C7825CD0971700009387278524
:105980001CD497170000938767895CD49717000091
:105990009387278CB24000D01CD8224441018280DA
:1059A00097050000938545F3B1A2411126C29307E4
:1059B00080069384F5FFB384F4024AC02E8922C482
:1059C00006C693854407F12E2A8419C923200500B1
:1059D00023222501310508C4138684068145BD2C88
:1059E000B2402285224492440249410182801C4DEA
:1059F000BDE3411122C406C697070000938787FACA
:105A00001CD523240504232605042328050497F721
:105A1000FFFF83A7E73C2A846314F50085471CCD6C
:105A200022851D2848C02285052808C422852D20EE
:105A300048C4484001469145013708440546A545FC
:105A4000E53D48440946C945C53D8547B2401CCCA3
:105A50002244410182808280411126C297F4FFFFD7
:105A600083A404389C4C4AC006C622C42A8999E300
:105A70002685B53F938484048044DC40FD1763D6BB
:105A800007009C40B1CF8440C5BF0317C40031E775
:105A9000C177850723220406232004002322040063
:105AA000232404005CC423280400232A0400232C9C
:105AB0000400214681451305C4054D22232A040212
:105AC000232C04022324040423260404B240228548
:105AD000224492440249410182801304840679BF22
